{
  "contracts/Storage.sol": {
    "Storage": {
      "abi": [
        {
          "inputs": [],
          "stateMutability": "nonpayable",
          "type": "constructor"
        },
        {
          "inputs": [
            {
              "internalType": "address",
              "name": "user",
              "type": "address"
            },
            {
              "internalType": "uint64",
              "name": "id1",
              "type": "uint64"
            },
            {
              "internalType": "uint64",
              "name": "id2",
              "type": "uint64"
            },
            {
              "internalType": "uint64",
              "name": "id3",
              "type": "uint64"
            }
          ],
          "name": "addLog",
          "outputs": [],
          "stateMutability": "nonpayable",
          "type": "function"
        },
        {
          "inputs": [
            {
              "internalType": "address",
              "name": "user",
              "type": "address"
            },
            {
              "internalType": "uint256",
              "name": "orderID",
              "type": "uint256"
            }
          ],
          "name": "addOrder",
          "outputs": [],
          "stateMutability": "nonpayable",
          "type": "function"
        },
        {
          "inputs": [
            {
              "internalType": "address",
              "name": "user",
              "type": "address"
            },
            {
              "internalType": "string",
              "name": "name",
              "type": "string"
            },
            {
              "internalType": "uint8",
              "name": "age",
              "type": "uint8"
            },
            {
              "internalType": "uint8",
              "name": "weight",
              "type": "uint8"
            }
          ],
          "name": "addUser",
          "outputs": [],
          "stateMutability": "nonpayable",
          "type": "function"
        },
        {
          "inputs": [
            {
              "internalType": "uint256",
              "name": "",
              "type": "uint256"
            }
          ],
          "name": "array",
          "outputs": [
            {
              "internalType": "uint256",
              "name": "",
              "type": "uint256"
            }
          ],
          "stateMutability": "view",
          "type": "function"
        },
        {
          "inputs": [
            {
              "internalType": "uint256",
              "name": "",
              "type": "uint256"
            }
          ],
          "name": "dynamicArray",
          "outputs": [
            {
              "internalType": "uint256",
              "name": "",
              "type": "uint256"
            }
          ],
          "stateMutability": "view",
          "type": "function"
        },
        {
          "inputs": [
            {
              "internalType": "address",
              "name": "user",
              "type": "address"
            }
          ],
          "name": "getLogins",
          "outputs": [
            {
              "internalType": "uint64",
              "name": "",
              "type": "uint64"
            },
            {
              "internalType": "uint64",
              "name": "",
              "type": "uint64"
            },
            {
              "internalType": "uint64",
              "name": "",
              "type": "uint64"
            }
          ],
          "stateMutability": "view",
          "type": "function"
        },
        {
          "inputs": [
            {
              "internalType": "address",
              "name": "user",
              "type": "address"
            }
          ],
          "name": "getOrders",
          "outputs": [
            {
              "internalType": "uint256[]",
              "name": "",
              "type": "uint256[]"
            }
          ],
          "stateMutability": "view",
          "type": "function"
        },
        {
          "inputs": [
            {
              "internalType": "string",
              "name": "_str",
              "type": "string"
            }
          ],
          "name": "setStr",
          "outputs": [],
          "stateMutability": "nonpayable",
          "type": "function"
        },
        {
          "inputs": [
            {
              "internalType": "address",
              "name": "",
              "type": "address"
            }
          ],
          "name": "users",
          "outputs": [
            {
              "internalType": "string",
              "name": "name",
              "type": "string"
            },
            {
              "internalType": "uint8",
              "name": "age",
              "type": "uint8"
            },
            {
              "internalType": "uint8",
              "name": "weight",
              "type": "uint8"
            }
          ],
          "stateMutability": "view",
          "type": "function"
        }
      ],
      "evm": {
        "bytecode": {
          "linkReferences": {},
          "object": "600b6000556001805471010000000000000000000000000000000d0c6001600160901b0319909116179055600280546001600160801b031916600e179055610120604052610191608090815261019260a05261019360c05261019560e05261019661010052620000749060039060056200022b565b5060408051808201909152600a8152696e616d652076616c756560b01b6020820152600790620000a590826200043d565b50600880546001600160801b031916600e179055348015620000c657600080fd5b50600580546001600160a01b031916339081178255604080518082019091529182526430b236b4b760d91b60208301526200010591601160786200010b565b62000509565b60008260ff1611801562000122575060648260ff16105b6200015d5760405162461bcd60e51b81526020600482015260076024820152666261642061676560c81b604482015260640160405180910390fd5b60606200016962000281565b6040805160a08101825286815260ff8087166020808401919091529086168284015260608201859052608082018490526001600160a01b038916600090815260069091529190912081518190620001c190826200043d565b50602082810151600183018054604086015160ff9081166101000261ffff19909216931692909217919091179055606083015180516200020892600285019201906200029f565b506080820151620002209060038084019190620002dd565b505050505050505050565b8280548282559060005260206000209081019282156200026f579160200282015b828111156200026f578251829061ffff169055916020019190600101906200024c565b506200027d9291506200037f565b5090565b60405180606001604052806003906020820280368337509192915050565b8280548282559060005260206000209081019282156200026f579160200282015b828111156200026f578251825591602001919060010190620002c0565b6001830191839082156200026f5791602002820160005b838211156200034057835183826101000a8154816001600160401b0302191690836001600160401b031602179055509260200192600801602081600701049283019260010302620002f4565b8015620003755782816101000a8154906001600160401b03021916905560080160208160070104928301926001030262000340565b50506200027d9291505b5b808211156200027d576000815560010162000380565b634e487b7160e01b600052604160045260246000fd5b600181811c90821680620003c157607f821691505b602082108103620003e257634e487b7160e01b600052602260045260246000fd5b50919050565b601f82111562000438576000816000526020600020601f850160051c81016020861015620004135750805b601f850160051c820191505b8181101562000434578281556001016200041f565b5050505b505050565b81516001600160401b0381111562000459576200045962000396565b62000471816200046a8454620003ac565b84620003e8565b602080601f831160018114620004a95760008415620004905750858301515b600019600386901b1c1916600185901b17855562000434565b600085815260208120601f198616915b82811015620004da57888601518255948401946001909101908401620004b9565b5085821015620004f95787850151600019600388901b60f8161c191681555b5050505050600190811b01905550565b610ab980620005196000396000f3fe608060405234801561001057600080fd5b50600436106100935760003560e01c80635683693f116100665780635683693f1461010a5780638126ccc4146101825780639a9bdca714610195578063a87430ba146101a8578063db6a3652146101ca57600080fd5b8063093376fe14610098578063191347df146100c15780633059100e146100d657806338d94193146100e9575b600080fd5b6100ab6100a6366004610656565b6101dd565b6040516100b89190610678565b60405180910390f35b6100d46100cf36600461075f565b61024f565b005b6100d46100e43660046107b4565b61025f565b6100fc6100f7366004610808565b6102e0565b6040519081526020016100b8565b610157610118366004610656565b6001600160a01b031660009081526006602052604090206003015467ffffffffffffffff80821692600160401b8304821692600160801b900490911690565b6040805167ffffffffffffffff948516815292841660208401529216918101919091526060016100b8565b6100d4610190366004610832565b610301565b6100fc6101a3366004610808565b610417565b6101bb6101b6366004610656565b610427565b6040516100b893929190610896565b6100d46101d83660046108f8565b6104d7565b6001600160a01b038116600090815260066020908152604091829020600281018054845181850281018501909552808552606094929383018282801561024257602002820191906000526020600020905b81548152602001906001019080831161022e575b5050505050915050919050565b600761025b82826109ad565b5050565b6001600160a01b0384166000908152600660205260409020600181015460ff1661028b5761028b610a6d565b600301805467ffffffffffffffff938416600160401b026fffffffffffffffffffffffffffffffff19909116948416949094179390931767ffffffffffffffff60801b1916600160801b919092160217905550565b600381815481106102f057600080fd5b600091825260209091200154905081565b60008260ff16118015610317575060648260ff16105b6103515760405162461bcd60e51b81526020600482015260076024820152666261642061676560c81b604482015260640160405180910390fd5b606061035b61051d565b6040805160a08101825286815260ff8087166020808401919091529086168284015260608201859052608082018490526001600160a01b0389166000908152600690915291909120815181906103b190826109ad565b50602082810151600183018054604086015160ff9081166101000261ffff19909216931692909217919091179055606083015180516103f6926002850192019061053b565b50608082015161040c9060038084019190610586565b505050505050505050565b600481815481106102f057600080fd5b60066020526000908152604090208054819061044290610922565b80601f016020809104026020016040519081016040528092919081815260200182805461046e90610922565b80156104bb5780601f10610490576101008083540402835291602001916104bb565b820191906000526020600020905b81548152906001019060200180831161049e57829003601f168201915b5050506001909301549192505060ff8082169161010090041683565b6001600160a01b0382166000908152600660205260409020600181015460ff1661050357610503610a6d565b600201805460018101825560009182526020909120015550565b60405180606001604052806003906020820280368337509192915050565b828054828255906000526020600020908101928215610576579160200282015b8281111561057657825182559160200191906001019061055b565b50610582929150610625565b5090565b6001830191839082156105765791602002820160005b838211156105e857835183826101000a81548167ffffffffffffffff021916908367ffffffffffffffff160217905550926020019260080160208160070104928301926001030261059c565b801561061c5782816101000a81549067ffffffffffffffff02191690556008016020816007010492830192600103026105e8565b50506105829291505b5b808211156105825760008155600101610626565b80356001600160a01b038116811461065157600080fd5b919050565b60006020828403121561066857600080fd5b6106718261063a565b9392505050565b6020808252825182820181905260009190848201906040850190845b818110156106b057835183529284019291840191600101610694565b50909695505050505050565b634e487b7160e01b600052604160045260246000fd5b600082601f8301126106e357600080fd5b813567ffffffffffffffff808211156106fe576106fe6106bc565b604051601f8301601f19908116603f01168101908282118183101715610726576107266106bc565b8160405283815286602085880101111561073f57600080fd5b836020870160208301376000602085830101528094505050505092915050565b60006020828403121561077157600080fd5b813567ffffffffffffffff81111561078857600080fd5b610794848285016106d2565b949350505050565b803567ffffffffffffffff8116811461065157600080fd5b600080600080608085870312156107ca57600080fd5b6107d38561063a565b93506107e16020860161079c565b92506107ef6040860161079c565b91506107fd6060860161079c565b905092959194509250565b60006020828403121561081a57600080fd5b5035919050565b803560ff8116811461065157600080fd5b6000806000806080858703121561084857600080fd5b6108518561063a565b9350602085013567ffffffffffffffff81111561086d57600080fd5b610879878288016106d2565b93505061088860408601610821565b91506107fd60608601610821565b606081526000845180606084015260005b818110156108c457602081880181015160808684010152016108a7565b506000608082850101526080601f19601f83011684010191505060ff8416602083015260ff83166040830152949350505050565b6000806040838503121561090b57600080fd5b6109148361063a565b946020939093013593505050565b600181811c9082168061093657607f821691505b60208210810361095657634e487b7160e01b600052602260045260246000fd5b50919050565b601f8211156109a8576000816000526020600020601f850160051c810160208610156109855750805b601f850160051c820191505b818110156109a457828155600101610991565b5050505b505050565b815167ffffffffffffffff8111156109c7576109c76106bc565b6109db816109d58454610922565b8461095c565b602080601f831160018114610a1057600084156109f85750858301515b600019600386901b1c1916600185901b1785556109a4565b600085815260208120601f198616915b82811015610a3f57888601518255948401946001909101908401610a20565b5085821015610a5d5787850151600019600388901b60f8161c191681555b5050505050600190811b01905550565b634e487b7160e01b600052600160045260246000fdfea2646970667358221220431d742650bc82d066d8b9ea6d708016f4bd0a3349d11bc0d7b71b1ee45a494564736f6c63430008180033",
          "opcodes": "PUSH1 0xB PUSH1 0x0 SSTORE PUSH1 0x1 DUP1 SLOAD PUSH18 0x10000000000000000000000000000000D0C PUSH1 0x1 PUSH1 0x1 PUSH1 0x90 SHL SUB NOT SWAP1 SWAP2 AND OR SWAP1 SSTORE PUSH1 0x2 DUP1 SLOAD PUSH1 0x1 PUSH1 0x1 PUSH1 0x80 SHL SUB NOT AND PUSH1 0xE OR SWAP1 SSTORE PUSH2 0x120 PUSH1 0x40 MSTORE PUSH2 0x191 PUSH1 0x80 SWAP1 DUP2 MSTORE PUSH2 0x192 PUSH1 0xA0 MSTORE PUSH2 0x193 PUSH1 0xC0 MSTORE PUSH2 0x195 PUSH1 0xE0 MSTORE PUSH2 0x196 PUSH2 0x100 MSTORE PUSH3 0x74 SWAP1 PUSH1 0x3 SWAP1 PUSH1 0x5 PUSH3 0x22B JUMP JUMPDEST POP PUSH1 0x40 DUP1 MLOAD DUP1 DUP3 ADD SWAP1 SWAP2 MSTORE PUSH1 0xA DUP2 MSTORE PUSH10 0x6E616D652076616C7565 PUSH1 0xB0 SHL PUSH1 0x20 DUP3 ADD MSTORE PUSH1 0x7 SWAP1 PUSH3 0xA5 SWAP1 DUP3 PUSH3 0x43D JUMP JUMPDEST POP PUSH1 0x8 DUP1 SLOAD PUSH1 0x1 PUSH1 0x1 PUSH1 0x80 SHL SUB NOT AND PUSH1 0xE OR SWAP1 SSTORE CALLVALUE DUP1 ISZERO PUSH3 0xC6 JUMPI PUSH1 0x0 DUP1 REVERT JUMPDEST POP PUSH1 0x5 DUP1 SLOAD PUSH1 0x1 PUSH1 0x1 PUSH1 0xA0 SHL SUB NOT AND CALLER SWAP1 DUP2 OR DUP3 SSTORE PUSH1 0x40 DUP1 MLOAD DUP1 DUP3 ADD SWAP1 SWAP2 MSTORE SWAP2 DUP3 MSTORE PUSH5 0x30B236B4B7 PUSH1 0xD9 SHL PUSH1 0x20 DUP4 ADD MSTORE PUSH3 0x105 SWAP2 PUSH1 0x11 PUSH1 0x78 PUSH3 0x10B JUMP JUMPDEST PUSH3 0x509 JUMP JUMPDEST PUSH1 0x0 DUP3 PUSH1 0xFF AND GT DUP1 ISZERO PUSH3 0x122 JUMPI POP PUSH1 0x64 DUP3 PUSH1 0xFF AND LT JUMPDEST PUSH3 0x15D JUMPI PUSH1 0x40 MLOAD PUSH3 0x461BCD PUSH1 0xE5 SHL DUP2 MSTORE PUSH1 0x20 PUSH1 0x4 DUP3 ADD MSTORE PUSH1 0x7 PUSH1 0x24 DUP3 ADD MSTORE PUSH7 0x62616420616765 PUSH1 0xC8 SHL PUSH1 0x44 DUP3 ADD MSTORE PUSH1 0x64 ADD PUSH1 0x40 MLOAD DUP1 SWAP2 SUB SWAP1 REVERT JUMPDEST PUSH1 0x60 PUSH3 0x169 PUSH3 0x281 JUMP JUMPDEST PUSH1 0x40 DUP1 MLOAD PUSH1 0xA0 DUP2 ADD DUP3 MSTORE DUP7 DUP2 MSTORE PUSH1 0xFF DUP1 DUP8 AND PUSH1 0x20 DUP1 DUP5 ADD SWAP2 SWAP1 SWAP2 MSTORE SWAP1 DUP7 AND DUP3 DUP5 ADD MSTORE PUSH1 0x60 DUP3 ADD DUP6 SWAP1 MSTORE PUSH1 0x80 DUP3 ADD DUP5 SWAP1 MSTORE PUSH1 0x1 PUSH1 0x1 PUSH1 0xA0 SHL SUB DUP10 AND PUSH1 0x0 SWAP1 DUP2 MSTORE PUSH1 0x6 SWAP1 SWAP2 MSTORE SWAP2 SWAP1 SWAP2 KECCAK256 DUP2 MLOAD DUP2 SWAP1 PUSH3 0x1C1 SWAP1 DUP3 PUSH3 0x43D JUMP JUMPDEST POP PUSH1 0x20 DUP3 DUP2 ADD MLOAD PUSH1 0x1 DUP4 ADD DUP1 SLOAD PUSH1 0x40 DUP7 ADD MLOAD PUSH1 0xFF SWAP1 DUP2 AND PUSH2 0x100 MUL PUSH2 0xFFFF NOT SWAP1 SWAP3 AND SWAP4 AND SWAP3 SWAP1 SWAP3 OR SWAP2 SWAP1 SWAP2 OR SWAP1 SSTORE PUSH1 0x60 DUP4 ADD MLOAD DUP1 MLOAD PUSH3 0x208 SWAP3 PUSH1 0x2 DUP6 ADD SWAP3 ADD SWAP1 PUSH3 0x29F JUMP JUMPDEST POP PUSH1 0x80 DUP3 ADD MLOAD PUSH3 0x220 SWAP1 PUSH1 0x3 DUP1 DUP5 ADD SWAP2 SWAP1 PUSH3 0x2DD JUMP JUMPDEST POP POP POP POP POP POP POP POP POP JUMP JUMPDEST DUP3 DUP1 SLOAD DUP3 DUP3 SSTORE SWAP1 PUSH1 0x0 MSTORE PUSH1 0x20 PUSH1 0x0 KECCAK256 SWAP1 DUP2 ADD SWAP3 DUP3 ISZERO PUSH3 0x26F JUMPI SWAP2 PUSH1 0x20 MUL DUP3 ADD JUMPDEST DUP3 DUP2 GT ISZERO PUSH3 0x26F JUMPI DUP3 MLOAD DUP3 SWAP1 PUSH2 0xFFFF AND SWAP1 SSTORE SWAP2 PUSH1 0x20 ADD SWAP2 SWAP1 PUSH1 0x1 ADD SWAP1 PUSH3 0x24C JUMP JUMPDEST POP PUSH3 0x27D SWAP3 SWAP2 POP PUSH3 0x37F JUMP JUMPDEST POP SWAP1 JUMP JUMPDEST PUSH1 0x40 MLOAD DUP1 PUSH1 0x60 ADD PUSH1 0x40 MSTORE DUP1 PUSH1 0x3 SWAP1 PUSH1 0x20 DUP3 MUL DUP1 CALLDATASIZE DUP4 CALLDATACOPY POP SWAP2 SWAP3 SWAP2 POP POP JUMP JUMPDEST DUP3 DUP1 SLOAD DUP3 DUP3 SSTORE SWAP1 PUSH1 0x0 MSTORE PUSH1 0x20 PUSH1 0x0 KECCAK256 SWAP1 DUP2 ADD SWAP3 DUP3 ISZERO PUSH3 0x26F JUMPI SWAP2 PUSH1 0x20 MUL DUP3 ADD JUMPDEST DUP3 DUP2 GT ISZERO PUSH3 0x26F JUMPI DUP3 MLOAD DUP3 SSTORE SWAP2 PUSH1 0x20 ADD SWAP2 SWAP1 PUSH1 0x1 ADD SWAP1 PUSH3 0x2C0 JUMP JUMPDEST PUSH1 0x1 DUP4 ADD SWAP2 DUP4 SWAP1 DUP3 ISZERO PUSH3 0x26F JUMPI SWAP2 PUSH1 0x20 MUL DUP3 ADD PUSH1 0x0 JUMPDEST DUP4 DUP3 GT ISZERO PUSH3 0x340 JUMPI DUP4 MLOAD DUP4 DUP3 PUSH2 0x100 EXP DUP2 SLOAD DUP2 PUSH1 0x1 PUSH1 0x1 PUSH1 0x40 SHL SUB MUL NOT AND SWAP1 DUP4 PUSH1 0x1 PUSH1 0x1 PUSH1 0x40 SHL SUB AND MUL OR SWAP1 SSTORE POP SWAP3 PUSH1 0x20 ADD SWAP3 PUSH1 0x8 ADD PUSH1 0x20 DUP2 PUSH1 0x7 ADD DIV SWAP3 DUP4 ADD SWAP3 PUSH1 0x1 SUB MUL PUSH3 0x2F4 JUMP JUMPDEST DUP1 ISZERO PUSH3 0x375 JUMPI DUP3 DUP2 PUSH2 0x100 EXP DUP2 SLOAD SWAP1 PUSH1 0x1 PUSH1 0x1 PUSH1 0x40 SHL SUB MUL NOT AND SWAP1 SSTORE PUSH1 0x8 ADD PUSH1 0x20 DUP2 PUSH1 0x7 ADD DIV SWAP3 DUP4 ADD SWAP3 PUSH1 0x1 SUB MUL PUSH3 0x340 JUMP JUMPDEST POP POP PUSH3 0x27D SWAP3 SWAP2 POP JUMPDEST JUMPDEST DUP1 DUP3 GT ISZERO PUSH3 0x27D JUMPI PUSH1 0x0 DUP2 SSTORE PUSH1 0x1 ADD PUSH3 0x380 JUMP JUMPDEST PUSH4 0x4E487B71 PUSH1 0xE0 SHL PUSH1 0x0 MSTORE PUSH1 0x41 PUSH1 0x4 MSTORE PUSH1 0x24 PUSH1 0x0 REVERT JUMPDEST PUSH1 0x1 DUP2 DUP2 SHR SWAP1 DUP3 AND DUP1 PUSH3 0x3C1 JUMPI PUSH1 0x7F DUP3 AND SWAP2 POP JUMPDEST PUSH1 0x20 DUP3 LT DUP2 SUB PUSH3 0x3E2 JUMPI PUSH4 0x4E487B71 PUSH1 0xE0 SHL PUSH1 0x0 MSTORE PUSH1 0x22 PUSH1 0x4 MSTORE PUSH1 0x24 PUSH1 0x0 REVERT JUMPDEST POP SWAP2 SWAP1 POP JUMP JUMPDEST PUSH1 0x1F DUP3 GT ISZERO PUSH3 0x438 JUMPI PUSH1 0x0 DUP2 PUSH1 0x0 MSTORE PUSH1 0x20 PUSH1 0x0 KECCAK256 PUSH1 0x1F DUP6 ADD PUSH1 0x5 SHR DUP2 ADD PUSH1 0x20 DUP7 LT ISZERO PUSH3 0x413 JUMPI POP DUP1 JUMPDEST PUSH1 0x1F DUP6 ADD PUSH1 0x5 SHR DUP3 ADD SWAP2 POP JUMPDEST DUP2 DUP2 LT ISZERO PUSH3 0x434 JUMPI DUP3 DUP2 SSTORE PUSH1 0x1 ADD PUSH3 0x41F JUMP JUMPDEST POP POP POP JUMPDEST POP POP POP JUMP JUMPDEST DUP2 MLOAD PUSH1 0x1 PUSH1 0x1 PUSH1 0x40 SHL SUB DUP2 GT ISZERO PUSH3 0x459 JUMPI PUSH3 0x459 PUSH3 0x396 JUMP JUMPDEST PUSH3 0x471 DUP2 PUSH3 0x46A DUP5 SLOAD PUSH3 0x3AC JUMP JUMPDEST DUP5 PUSH3 0x3E8 JUMP JUMPDEST PUSH1 0x20 DUP1 PUSH1 0x1F DUP4 GT PUSH1 0x1 DUP2 EQ PUSH3 0x4A9 JUMPI PUSH1 0x0 DUP5 ISZERO PUSH3 0x490 JUMPI POP DUP6 DUP4 ADD MLOAD JUMPDEST PUSH1 0x0 NOT PUSH1 0x3 DUP7 SWAP1 SHL SHR NOT AND PUSH1 0x1 DUP6 SWAP1 SHL OR DUP6 SSTORE PUSH3 0x434 JUMP JUMPDEST PUSH1 0x0 DUP6 DUP2 MSTORE PUSH1 0x20 DUP2 KECCAK256 PUSH1 0x1F NOT DUP7 AND SWAP2 JUMPDEST DUP3 DUP2 LT ISZERO PUSH3 0x4DA JUMPI DUP9 DUP7 ADD MLOAD DUP3 SSTORE SWAP5 DUP5 ADD SWAP5 PUSH1 0x1 SWAP1 SWAP2 ADD SWAP1 DUP5 ADD PUSH3 0x4B9 JUMP JUMPDEST POP DUP6 DUP3 LT ISZERO PUSH3 0x4F9 JUMPI DUP8 DUP6 ADD MLOAD PUSH1 0x0 NOT PUSH1 0x3 DUP9 SWAP1 SHL PUSH1 0xF8 AND SHR NOT AND DUP2 SSTORE JUMPDEST POP POP POP POP POP PUSH1 0x1 SWAP1 DUP2 SHL ADD SWAP1 SSTORE POP JUMP JUMPDEST PUSH2 0xAB9 DUP1 PUSH3 0x519 PUSH1 0x0 CODECOPY PUSH1 0x0 RETURN INVALID PUSH1 0x80 PUSH1 0x40 MSTORE CALLVALUE DUP1 ISZERO PUSH2 0x10 JUMPI PUSH1 0x0 DUP1 REVERT JUMPDEST POP PUSH1 0x4 CALLDATASIZE LT PUSH2 0x93 JUMPI PUSH1 0x0 CALLDATALOAD PUSH1 0xE0 SHR DUP1 PUSH4 0x5683693F GT PUSH2 0x66 JUMPI DUP1 PUSH4 0x5683693F EQ PUSH2 0x10A JUMPI DUP1 PUSH4 0x8126CCC4 EQ PUSH2 0x182 JUMPI DUP1 PUSH4 0x9A9BDCA7 EQ PUSH2 0x195 JUMPI DUP1 PUSH4 0xA87430BA EQ PUSH2 0x1A8 JUMPI DUP1 PUSH4 0xDB6A3652 EQ PUSH2 0x1CA JUMPI PUSH1 0x0 DUP1 REVERT JUMPDEST DUP1 PUSH4 0x93376FE EQ PUSH2 0x98 JUMPI DUP1 PUSH4 0x191347DF EQ PUSH2 0xC1 JUMPI DUP1 PUSH4 0x3059100E EQ PUSH2 0xD6 JUMPI DUP1 PUSH4 0x38D94193 EQ PUSH2 0xE9 JUMPI JUMPDEST PUSH1 0x0 DUP1 REVERT JUMPDEST PUSH2 0xAB PUSH2 0xA6 CALLDATASIZE PUSH1 0x4 PUSH2 0x656 JUMP JUMPDEST PUSH2 0x1DD JUMP JUMPDEST PUSH1 0x40 MLOAD PUSH2 0xB8 SWAP2 SWAP1 PUSH2 0x678 JUMP JUMPDEST PUSH1 0x40 MLOAD DUP1 SWAP2 SUB SWAP1 RETURN JUMPDEST PUSH2 0xD4 PUSH2 0xCF CALLDATASIZE PUSH1 0x4 PUSH2 0x75F JUMP JUMPDEST PUSH2 0x24F JUMP JUMPDEST STOP JUMPDEST PUSH2 0xD4 PUSH2 0xE4 CALLDATASIZE PUSH1 0x4 PUSH2 0x7B4 JUMP JUMPDEST PUSH2 0x25F JUMP JUMPDEST PUSH2 0xFC PUSH2 0xF7 CALLDATASIZE PUSH1 0x4 PUSH2 0x808 JUMP JUMPDEST PUSH2 0x2E0 JUMP JUMPDEST PUSH1 0x40 MLOAD SWAP1 DUP2 MSTORE PUSH1 0x20 ADD PUSH2 0xB8 JUMP JUMPDEST PUSH2 0x157 PUSH2 0x118 CALLDATASIZE PUSH1 0x4 PUSH2 0x656 JUMP JUMPDEST PUSH1 0x1 PUSH1 0x1 PUSH1 0xA0 SHL SUB AND PUSH1 0x0 SWAP1 DUP2 MSTORE PUSH1 0x6 PUSH1 0x20 MSTORE PUSH1 0x40 SWAP1 KECCAK256 PUSH1 0x3 ADD SLOAD PUSH8 0xFFFFFFFFFFFFFFFF DUP1 DUP3 AND SWAP3 PUSH1 0x1 PUSH1 0x40 SHL DUP4 DIV DUP3 AND SWAP3 PUSH1 0x1 PUSH1 0x80 SHL SWAP1 DIV SWAP1 SWAP2 AND SWAP1 JUMP JUMPDEST PUSH1 0x40 DUP1 MLOAD PUSH8 0xFFFFFFFFFFFFFFFF SWAP5 DUP6 AND DUP2 MSTORE SWAP3 DUP5 AND PUSH1 0x20 DUP5 ADD MSTORE SWAP3 AND SWAP2 DUP2 ADD SWAP2 SWAP1 SWAP2 MSTORE PUSH1 0x60 ADD PUSH2 0xB8 JUMP JUMPDEST PUSH2 0xD4 PUSH2 0x190 CALLDATASIZE PUSH1 0x4 PUSH2 0x832 JUMP JUMPDEST PUSH2 0x301 JUMP JUMPDEST PUSH2 0xFC PUSH2 0x1A3 CALLDATASIZE PUSH1 0x4 PUSH2 0x808 JUMP JUMPDEST PUSH2 0x417 JUMP JUMPDEST PUSH2 0x1BB PUSH2 0x1B6 CALLDATASIZE PUSH1 0x4 PUSH2 0x656 JUMP JUMPDEST PUSH2 0x427 JUMP JUMPDEST PUSH1 0x40 MLOAD PUSH2 0xB8 SWAP4 SWAP3 SWAP2 SWAP1 PUSH2 0x896 JUMP JUMPDEST PUSH2 0xD4 PUSH2 0x1D8 CALLDATASIZE PUSH1 0x4 PUSH2 0x8F8 JUMP JUMPDEST PUSH2 0x4D7 JUMP JUMPDEST PUSH1 0x1 PUSH1 0x1 PUSH1 0xA0 SHL SUB DUP2 AND PUSH1 0x0 SWAP1 DUP2 MSTORE PUSH1 0x6 PUSH1 0x20 SWAP1 DUP2 MSTORE PUSH1 0x40 SWAP2 DUP3 SWAP1 KECCAK256 PUSH1 0x2 DUP2 ADD DUP1 SLOAD DUP5 MLOAD DUP2 DUP6 MUL DUP2 ADD DUP6 ADD SWAP1 SWAP6 MSTORE DUP1 DUP6 MSTORE PUSH1 0x60 SWAP5 SWAP3 SWAP4 DUP4 ADD DUP3 DUP3 DUP1 ISZERO PUSH2 0x242 JUMPI PUSH1 0x20 MUL DUP3 ADD SWAP2 SWAP1 PUSH1 0x0 MSTORE PUSH1 0x20 PUSH1 0x0 KECCAK256 SWAP1 JUMPDEST DUP2 SLOAD DUP2 MSTORE PUSH1 0x20 ADD SWAP1 PUSH1 0x1 ADD SWAP1 DUP1 DUP4 GT PUSH2 0x22E JUMPI JUMPDEST POP POP POP POP POP SWAP2 POP POP SWAP2 SWAP1 POP JUMP JUMPDEST PUSH1 0x7 PUSH2 0x25B DUP3 DUP3 PUSH2 0x9AD JUMP JUMPDEST POP POP JUMP JUMPDEST PUSH1 0x1 PUSH1 0x1 PUSH1 0xA0 SHL SUB DUP5 AND PUSH1 0x0 SWAP1 DUP2 MSTORE PUSH1 0x6 PUSH1 0x20 MSTORE PUSH1 0x40 SWAP1 KECCAK256 PUSH1 0x1 DUP2 ADD SLOAD PUSH1 0xFF AND PUSH2 0x28B JUMPI PUSH2 0x28B PUSH2 0xA6D JUMP JUMPDEST PUSH1 0x3 ADD DUP1 SLOAD PUSH8 0xFFFFFFFFFFFFFFFF SWAP4 DUP5 AND PUSH1 0x1 PUSH1 0x40 SHL MUL PUSH16 0xFFFFFFFFFFFFFFFFFFFFFFFFFFFFFFFF NOT SWAP1 SWAP2 AND SWAP5 DUP5 AND SWAP5 SWAP1 SWAP5 OR SWAP4 SWAP1 SWAP4 OR PUSH8 0xFFFFFFFFFFFFFFFF PUSH1 0x80 SHL NOT AND PUSH1 0x1 PUSH1 0x80 SHL SWAP2 SWAP1 SWAP3 AND MUL OR SWAP1 SSTORE POP JUMP JUMPDEST PUSH1 0x3 DUP2 DUP2 SLOAD DUP2 LT PUSH2 0x2F0 JUMPI PUSH1 0x0 DUP1 REVERT JUMPDEST PUSH1 0x0 SWAP2 DUP3 MSTORE PUSH1 0x20 SWAP1 SWAP2 KECCAK256 ADD SLOAD SWAP1 POP DUP2 JUMP JUMPDEST PUSH1 0x0 DUP3 PUSH1 0xFF AND GT DUP1 ISZERO PUSH2 0x317 JUMPI POP PUSH1 0x64 DUP3 PUSH1 0xFF AND LT JUMPDEST PUSH2 0x351 JUMPI PUSH1 0x40 MLOAD PUSH3 0x461BCD PUSH1 0xE5 SHL DUP2 MSTORE PUSH1 0x20 PUSH1 0x4 DUP3 ADD MSTORE PUSH1 0x7 PUSH1 0x24 DUP3 ADD MSTORE PUSH7 0x62616420616765 PUSH1 0xC8 SHL PUSH1 0x44 DUP3 ADD MSTORE PUSH1 0x64 ADD PUSH1 0x40 MLOAD DUP1 SWAP2 SUB SWAP1 REVERT JUMPDEST PUSH1 0x60 PUSH2 0x35B PUSH2 0x51D JUMP JUMPDEST PUSH1 0x40 DUP1 MLOAD PUSH1 0xA0 DUP2 ADD DUP3 MSTORE DUP7 DUP2 MSTORE PUSH1 0xFF DUP1 DUP8 AND PUSH1 0x20 DUP1 DUP5 ADD SWAP2 SWAP1 SWAP2 MSTORE SWAP1 DUP7 AND DUP3 DUP5 ADD MSTORE PUSH1 0x60 DUP3 ADD DUP6 SWAP1 MSTORE PUSH1 0x80 DUP3 ADD DUP5 SWAP1 MSTORE PUSH1 0x1 PUSH1 0x1 PUSH1 0xA0 SHL SUB DUP10 AND PUSH1 0x0 SWAP1 DUP2 MSTORE PUSH1 0x6 SWAP1 SWAP2 MSTORE SWAP2 SWAP1 SWAP2 KECCAK256 DUP2 MLOAD DUP2 SWAP1 PUSH2 0x3B1 SWAP1 DUP3 PUSH2 0x9AD JUMP JUMPDEST POP PUSH1 0x20 DUP3 DUP2 ADD MLOAD PUSH1 0x1 DUP4 ADD DUP1 SLOAD PUSH1 0x40 DUP7 ADD MLOAD PUSH1 0xFF SWAP1 DUP2 AND PUSH2 0x100 MUL PUSH2 0xFFFF NOT SWAP1 SWAP3 AND SWAP4 AND SWAP3 SWAP1 SWAP3 OR SWAP2 SWAP1 SWAP2 OR SWAP1 SSTORE PUSH1 0x60 DUP4 ADD MLOAD DUP1 MLOAD PUSH2 0x3F6 SWAP3 PUSH1 0x2 DUP6 ADD SWAP3 ADD SWAP1 PUSH2 0x53B JUMP JUMPDEST POP PUSH1 0x80 DUP3 ADD MLOAD PUSH2 0x40C SWAP1 PUSH1 0x3 DUP1 DUP5 ADD SWAP2 SWAP1 PUSH2 0x586 JUMP JUMPDEST POP POP POP POP POP POP POP POP POP JUMP JUMPDEST PUSH1 0x4 DUP2 DUP2 SLOAD DUP2 LT PUSH2 0x2F0 JUMPI PUSH1 0x0 DUP1 REVERT JUMPDEST PUSH1 0x6 PUSH1 0x20 MSTORE PUSH1 0x0 SWAP1 DUP2 MSTORE PUSH1 0x40 SWAP1 KECCAK256 DUP1 SLOAD DUP2 SWAP1 PUSH2 0x442 SWAP1 PUSH2 0x922 JUMP JUMPDEST DUP1 PUSH1 0x1F ADD PUSH1 0x20 DUP1 SWAP2 DIV MUL PUSH1 0x20 ADD PUSH1 0x40 MLOAD SWAP1 DUP2 ADD PUSH1 0x40 MSTORE DUP1 SWAP3 SWAP2 SWAP1 DUP2 DUP2 MSTORE PUSH1 0x20 ADD DUP3 DUP1 SLOAD PUSH2 0x46E SWAP1 PUSH2 0x922 JUMP JUMPDEST DUP1 ISZERO PUSH2 0x4BB JUMPI DUP1 PUSH1 0x1F LT PUSH2 0x490 JUMPI PUSH2 0x100 DUP1 DUP4 SLOAD DIV MUL DUP4 MSTORE SWAP2 PUSH1 0x20 ADD SWAP2 PUSH2 0x4BB JUMP JUMPDEST DUP3 ADD SWAP2 SWAP1 PUSH1 0x0 MSTORE PUSH1 0x20 PUSH1 0x0 KECCAK256 SWAP1 JUMPDEST DUP2 SLOAD DUP2 MSTORE SWAP1 PUSH1 0x1 ADD SWAP1 PUSH1 0x20 ADD DUP1 DUP4 GT PUSH2 0x49E JUMPI DUP3 SWAP1 SUB PUSH1 0x1F AND DUP3 ADD SWAP2 JUMPDEST POP POP POP PUSH1 0x1 SWAP1 SWAP4 ADD SLOAD SWAP2 SWAP3 POP POP PUSH1 0xFF DUP1 DUP3 AND SWAP2 PUSH2 0x100 SWAP1 DIV AND DUP4 JUMP JUMPDEST PUSH1 0x1 PUSH1 0x1 PUSH1 0xA0 SHL SUB DUP3 AND PUSH1 0x0 SWAP1 DUP2 MSTORE PUSH1 0x6 PUSH1 0x20 MSTORE PUSH1 0x40 SWAP1 KECCAK256 PUSH1 0x1 DUP2 ADD SLOAD PUSH1 0xFF AND PUSH2 0x503 JUMPI PUSH2 0x503 PUSH2 0xA6D JUMP JUMPDEST PUSH1 0x2 ADD DUP1 SLOAD PUSH1 0x1 DUP2 ADD DUP3 SSTORE PUSH1 0x0 SWAP2 DUP3 MSTORE PUSH1 0x20 SWAP1 SWAP2 KECCAK256 ADD SSTORE POP JUMP JUMPDEST PUSH1 0x40 MLOAD DUP1 PUSH1 0x60 ADD PUSH1 0x40 MSTORE DUP1 PUSH1 0x3 SWAP1 PUSH1 0x20 DUP3 MUL DUP1 CALLDATASIZE DUP4 CALLDATACOPY POP SWAP2 SWAP3 SWAP2 POP POP JUMP JUMPDEST DUP3 DUP1 SLOAD DUP3 DUP3 SSTORE SWAP1 PUSH1 0x0 MSTORE PUSH1 0x20 PUSH1 0x0 KECCAK256 SWAP1 DUP2 ADD SWAP3 DUP3 ISZERO PUSH2 0x576 JUMPI SWAP2 PUSH1 0x20 MUL DUP3 ADD JUMPDEST DUP3 DUP2 GT ISZERO PUSH2 0x576 JUMPI DUP3 MLOAD DUP3 SSTORE SWAP2 PUSH1 0x20 ADD SWAP2 SWAP1 PUSH1 0x1 ADD SWAP1 PUSH2 0x55B JUMP JUMPDEST POP PUSH2 0x582 SWAP3 SWAP2 POP PUSH2 0x625 JUMP JUMPDEST POP SWAP1 JUMP JUMPDEST PUSH1 0x1 DUP4 ADD SWAP2 DUP4 SWAP1 DUP3 ISZERO PUSH2 0x576 JUMPI SWAP2 PUSH1 0x20 MUL DUP3 ADD PUSH1 0x0 JUMPDEST DUP4 DUP3 GT ISZERO PUSH2 0x5E8 JUMPI DUP4 MLOAD DUP4 DUP3 PUSH2 0x100 EXP DUP2 SLOAD DUP2 PUSH8 0xFFFFFFFFFFFFFFFF MUL NOT AND SWAP1 DUP4 PUSH8 0xFFFFFFFFFFFFFFFF AND MUL OR SWAP1 SSTORE POP SWAP3 PUSH1 0x20 ADD SWAP3 PUSH1 0x8 ADD PUSH1 0x20 DUP2 PUSH1 0x7 ADD DIV SWAP3 DUP4 ADD SWAP3 PUSH1 0x1 SUB MUL PUSH2 0x59C JUMP JUMPDEST DUP1 ISZERO PUSH2 0x61C JUMPI DUP3 DUP2 PUSH2 0x100 EXP DUP2 SLOAD SWAP1 PUSH8 0xFFFFFFFFFFFFFFFF MUL NOT AND SWAP1 SSTORE PUSH1 0x8 ADD PUSH1 0x20 DUP2 PUSH1 0x7 ADD DIV SWAP3 DUP4 ADD SWAP3 PUSH1 0x1 SUB MUL PUSH2 0x5E8 JUMP JUMPDEST POP POP PUSH2 0x582 SWAP3 SWAP2 POP JUMPDEST JUMPDEST DUP1 DUP3 GT ISZERO PUSH2 0x582 JUMPI PUSH1 0x0 DUP2 SSTORE PUSH1 0x1 ADD PUSH2 0x626 JUMP JUMPDEST DUP1 CALLDATALOAD PUSH1 0x1 PUSH1 0x1 PUSH1 0xA0 SHL SUB DUP2 AND DUP2 EQ PUSH2 0x651 JUMPI PUSH1 0x0 DUP1 REVERT JUMPDEST SWAP2 SWAP1 POP JUMP JUMPDEST PUSH1 0x0 PUSH1 0x20 DUP3 DUP5 SUB SLT ISZERO PUSH2 0x668 JUMPI PUSH1 0x0 DUP1 REVERT JUMPDEST PUSH2 0x671 DUP3 PUSH2 0x63A JUMP JUMPDEST SWAP4 SWAP3 POP POP POP JUMP JUMPDEST PUSH1 0x20 DUP1 DUP3 MSTORE DUP3 MLOAD DUP3 DUP3 ADD DUP2 SWAP1 MSTORE PUSH1 0x0 SWAP2 SWAP1 DUP5 DUP3 ADD SWAP1 PUSH1 0x40 DUP6 ADD SWAP1 DUP5 JUMPDEST DUP2 DUP2 LT ISZERO PUSH2 0x6B0 JUMPI DUP4 MLOAD DUP4 MSTORE SWAP3 DUP5 ADD SWAP3 SWAP2 DUP5 ADD SWAP2 PUSH1 0x1 ADD PUSH2 0x694 JUMP JUMPDEST POP SWAP1 SWAP7 SWAP6 POP POP POP POP POP POP JUMP JUMPDEST PUSH4 0x4E487B71 PUSH1 0xE0 SHL PUSH1 0x0 MSTORE PUSH1 0x41 PUSH1 0x4 MSTORE PUSH1 0x24 PUSH1 0x0 REVERT JUMPDEST PUSH1 0x0 DUP3 PUSH1 0x1F DUP4 ADD SLT PUSH2 0x6E3 JUMPI PUSH1 0x0 DUP1 REVERT JUMPDEST DUP2 CALLDATALOAD PUSH8 0xFFFFFFFFFFFFFFFF DUP1 DUP3 GT ISZERO PUSH2 0x6FE JUMPI PUSH2 0x6FE PUSH2 0x6BC JUMP JUMPDEST PUSH1 0x40 MLOAD PUSH1 0x1F DUP4 ADD PUSH1 0x1F NOT SWAP1 DUP2 AND PUSH1 0x3F ADD AND DUP2 ADD SWAP1 DUP3 DUP3 GT DUP2 DUP4 LT OR ISZERO PUSH2 0x726 JUMPI PUSH2 0x726 PUSH2 0x6BC JUMP JUMPDEST DUP2 PUSH1 0x40 MSTORE DUP4 DUP2 MSTORE DUP7 PUSH1 0x20 DUP6 DUP9 ADD ADD GT ISZERO PUSH2 0x73F JUMPI PUSH1 0x0 DUP1 REVERT JUMPDEST DUP4 PUSH1 0x20 DUP8 ADD PUSH1 0x20 DUP4 ADD CALLDATACOPY PUSH1 0x0 PUSH1 0x20 DUP6 DUP4 ADD ADD MSTORE DUP1 SWAP5 POP POP POP POP POP SWAP3 SWAP2 POP POP JUMP JUMPDEST PUSH1 0x0 PUSH1 0x20 DUP3 DUP5 SUB SLT ISZERO PUSH2 0x771 JUMPI PUSH1 0x0 DUP1 REVERT JUMPDEST DUP2 CALLDATALOAD PUSH8 0xFFFFFFFFFFFFFFFF DUP2 GT ISZERO PUSH2 0x788 JUMPI PUSH1 0x0 DUP1 REVERT JUMPDEST PUSH2 0x794 DUP5 DUP3 DUP6 ADD PUSH2 0x6D2 JUMP JUMPDEST SWAP5 SWAP4 POP POP POP POP JUMP JUMPDEST DUP1 CALLDATALOAD PUSH8 0xFFFFFFFFFFFFFFFF DUP2 AND DUP2 EQ PUSH2 0x651 JUMPI PUSH1 0x0 DUP1 REVERT JUMPDEST PUSH1 0x0 DUP1 PUSH1 0x0 DUP1 PUSH1 0x80 DUP6 DUP8 SUB SLT ISZERO PUSH2 0x7CA JUMPI PUSH1 0x0 DUP1 REVERT JUMPDEST PUSH2 0x7D3 DUP6 PUSH2 0x63A JUMP JUMPDEST SWAP4 POP PUSH2 0x7E1 PUSH1 0x20 DUP7 ADD PUSH2 0x79C JUMP JUMPDEST SWAP3 POP PUSH2 0x7EF PUSH1 0x40 DUP7 ADD PUSH2 0x79C JUMP JUMPDEST SWAP2 POP PUSH2 0x7FD PUSH1 0x60 DUP7 ADD PUSH2 0x79C JUMP JUMPDEST SWAP1 POP SWAP3 SWAP6 SWAP2 SWAP5 POP SWAP3 POP JUMP JUMPDEST PUSH1 0x0 PUSH1 0x20 DUP3 DUP5 SUB SLT ISZERO PUSH2 0x81A JUMPI PUSH1 0x0 DUP1 REVERT JUMPDEST POP CALLDATALOAD SWAP2 SWAP1 POP JUMP JUMPDEST DUP1 CALLDATALOAD PUSH1 0xFF DUP2 AND DUP2 EQ PUSH2 0x651 JUMPI PUSH1 0x0 DUP1 REVERT JUMPDEST PUSH1 0x0 DUP1 PUSH1 0x0 DUP1 PUSH1 0x80 DUP6 DUP8 SUB SLT ISZERO PUSH2 0x848 JUMPI PUSH1 0x0 DUP1 REVERT JUMPDEST PUSH2 0x851 DUP6 PUSH2 0x63A JUMP JUMPDEST SWAP4 POP PUSH1 0x20 DUP6 ADD CALLDATALOAD PUSH8 0xFFFFFFFFFFFFFFFF DUP2 GT ISZERO PUSH2 0x86D JUMPI PUSH1 0x0 DUP1 REVERT JUMPDEST PUSH2 0x879 DUP8 DUP3 DUP9 ADD PUSH2 0x6D2 JUMP JUMPDEST SWAP4 POP POP PUSH2 0x888 PUSH1 0x40 DUP7 ADD PUSH2 0x821 JUMP JUMPDEST SWAP2 POP PUSH2 0x7FD PUSH1 0x60 DUP7 ADD PUSH2 0x821 JUMP JUMPDEST PUSH1 0x60 DUP2 MSTORE PUSH1 0x0 DUP5 MLOAD DUP1 PUSH1 0x60 DUP5 ADD MSTORE PUSH1 0x0 JUMPDEST DUP2 DUP2 LT ISZERO PUSH2 0x8C4 JUMPI PUSH1 0x20 DUP2 DUP9 ADD DUP2 ADD MLOAD PUSH1 0x80 DUP7 DUP5 ADD ADD MSTORE ADD PUSH2 0x8A7 JUMP JUMPDEST POP PUSH1 0x0 PUSH1 0x80 DUP3 DUP6 ADD ADD MSTORE PUSH1 0x80 PUSH1 0x1F NOT PUSH1 0x1F DUP4 ADD AND DUP5 ADD ADD SWAP2 POP POP PUSH1 0xFF DUP5 AND PUSH1 0x20 DUP4 ADD MSTORE PUSH1 0xFF DUP4 AND PUSH1 0x40 DUP4 ADD MSTORE SWAP5 SWAP4 POP POP POP POP JUMP JUMPDEST PUSH1 0x0 DUP1 PUSH1 0x40 DUP4 DUP6 SUB SLT ISZERO PUSH2 0x90B JUMPI PUSH1 0x0 DUP1 REVERT JUMPDEST PUSH2 0x914 DUP4 PUSH2 0x63A JUMP JUMPDEST SWAP5 PUSH1 0x20 SWAP4 SWAP1 SWAP4 ADD CALLDATALOAD SWAP4 POP POP POP JUMP JUMPDEST PUSH1 0x1 DUP2 DUP2 SHR SWAP1 DUP3 AND DUP1 PUSH2 0x936 JUMPI PUSH1 0x7F DUP3 AND SWAP2 POP JUMPDEST PUSH1 0x20 DUP3 LT DUP2 SUB PUSH2 0x956 JUMPI PUSH4 0x4E487B71 PUSH1 0xE0 SHL PUSH1 0x0 MSTORE PUSH1 0x22 PUSH1 0x4 MSTORE PUSH1 0x24 PUSH1 0x0 REVERT JUMPDEST POP SWAP2 SWAP1 POP JUMP JUMPDEST PUSH1 0x1F DUP3 GT ISZERO PUSH2 0x9A8 JUMPI PUSH1 0x0 DUP2 PUSH1 0x0 MSTORE PUSH1 0x20 PUSH1 0x0 KECCAK256 PUSH1 0x1F DUP6 ADD PUSH1 0x5 SHR DUP2 ADD PUSH1 0x20 DUP7 LT ISZERO PUSH2 0x985 JUMPI POP DUP1 JUMPDEST PUSH1 0x1F DUP6 ADD PUSH1 0x5 SHR DUP3 ADD SWAP2 POP JUMPDEST DUP2 DUP2 LT ISZERO PUSH2 0x9A4 JUMPI DUP3 DUP2 SSTORE PUSH1 0x1 ADD PUSH2 0x991 JUMP JUMPDEST POP POP POP JUMPDEST POP POP POP JUMP JUMPDEST DUP2 MLOAD PUSH8 0xFFFFFFFFFFFFFFFF DUP2 GT ISZERO PUSH2 0x9C7 JUMPI PUSH2 0x9C7 PUSH2 0x6BC JUMP JUMPDEST PUSH2 0x9DB DUP2 PUSH2 0x9D5 DUP5 SLOAD PUSH2 0x922 JUMP JUMPDEST DUP5 PUSH2 0x95C JUMP JUMPDEST PUSH1 0x20 DUP1 PUSH1 0x1F DUP4 GT PUSH1 0x1 DUP2 EQ PUSH2 0xA10 JUMPI PUSH1 0x0 DUP5 ISZERO PUSH2 0x9F8 JUMPI POP DUP6 DUP4 ADD MLOAD JUMPDEST PUSH1 0x0 NOT PUSH1 0x3 DUP7 SWAP1 SHL SHR NOT AND PUSH1 0x1 DUP6 SWAP1 SHL OR DUP6 SSTORE PUSH2 0x9A4 JUMP JUMPDEST PUSH1 0x0 DUP6 DUP2 MSTORE PUSH1 0x20 DUP2 KECCAK256 PUSH1 0x1F NOT DUP7 AND SWAP2 JUMPDEST DUP3 DUP2 LT ISZERO PUSH2 0xA3F JUMPI DUP9 DUP7 ADD MLOAD DUP3 SSTORE SWAP5 DUP5 ADD SWAP5 PUSH1 0x1 SWAP1 SWAP2 ADD SWAP1 DUP5 ADD PUSH2 0xA20 JUMP JUMPDEST POP DUP6 DUP3 LT ISZERO PUSH2 0xA5D JUMPI DUP8 DUP6 ADD MLOAD PUSH1 0x0 NOT PUSH1 0x3 DUP9 SWAP1 SHL PUSH1 0xF8 AND SHR NOT AND DUP2 SSTORE JUMPDEST POP POP POP POP POP PUSH1 0x1 SWAP1 DUP2 SHL ADD SWAP1 SSTORE POP JUMP JUMPDEST PUSH4 0x4E487B71 PUSH1 0xE0 SHL PUSH1 0x0 MSTORE PUSH1 0x1 PUSH1 0x4 MSTORE PUSH1 0x24 PUSH1 0x0 REVERT INVALID LOG2 PUSH5 0x6970667358 0x22 SLT KECCAK256 NUMBER SAR PUSH21 0x2650BC82D066D8B9EA6D708016F4BD0A3349D11BC0 0xD7 0xB7 SHL 0x1E 0xE4 GAS BLOBHASH GASLIMIT PUSH5 0x736F6C6343 STOP ADDMOD XOR STOP CALLER "
        },
        "methodIdentifiers": {
          "addLog(address,uint64,uint64,uint64)": "3059100e",
          "addOrder(address,uint256)": "db6a3652",
          "addUser(address,string,uint8,uint8)": "8126ccc4",
          "array(uint256)": "38d94193",
          "dynamicArray(uint256)": "9a9bdca7",
          "getLogins(address)": "5683693f",
          "getOrders(address)": "093376fe",
          "setStr(string)": "191347df",
          "users(address)": "a87430ba"
        }
      }
    }
  }
}