{
  "_format": "hh-sol-artifact-1",
  "contractName": "Storage",
  "sourceName": "contracts/Storage.sol",
  "abi": [
    {
      "inputs": [],
      "stateMutability": "nonpayable",
      "type": "constructor"
    },
    {
      "inputs": [
        {
          "internalType": "address",
          "name": "user",
          "type": "address"
        },
        {
          "internalType": "uint64",
          "name": "id1",
          "type": "uint64"
        },
        {
          "internalType": "uint64",
          "name": "id2",
          "type": "uint64"
        },
        {
          "internalType": "uint64",
          "name": "id3",
          "type": "uint64"
        }
      ],
      "name": "addLog",
      "outputs": [],
      "stateMutability": "nonpayable",
      "type": "function"
    },
    {
      "inputs": [
        {
          "internalType": "address",
          "name": "user",
          "type": "address"
        },
        {
          "internalType": "uint256",
          "name": "orderID",
          "type": "uint256"
        }
      ],
      "name": "addOrder",
      "outputs": [],
      "stateMutability": "nonpayable",
      "type": "function"
    },
    {
      "inputs": [
        {
          "internalType": "address",
          "name": "user",
          "type": "address"
        },
        {
          "internalType": "string",
          "name": "name",
          "type": "string"
        },
        {
          "internalType": "uint8",
          "name": "age",
          "type": "uint8"
        },
        {
          "internalType": "uint8",
          "name": "weight",
          "type": "uint8"
        }
      ],
      "name": "addUser",
      "outputs": [],
      "stateMutability": "nonpayable",
      "type": "function"
    },
    {
      "inputs": [
        {
          "internalType": "uint256",
          "name": "",
          "type": "uint256"
        }
      ],
      "name": "array",
      "outputs": [
        {
          "internalType": "uint256",
          "name": "",
          "type": "uint256"
        }
      ],
      "stateMutability": "view",
      "type": "function"
    },
    {
      "inputs": [
        {
          "internalType": "uint256",
          "name": "",
          "type": "uint256"
        }
      ],
      "name": "dynamicArray",
      "outputs": [
        {
          "internalType": "uint256",
          "name": "",
          "type": "uint256"
        }
      ],
      "stateMutability": "view",
      "type": "function"
    },
    {
      "inputs": [
        {
          "internalType": "address",
          "name": "user",
          "type": "address"
        }
      ],
      "name": "getLogins",
      "outputs": [
        {
          "internalType": "uint64",
          "name": "",
          "type": "uint64"
        },
        {
          "internalType": "uint64",
          "name": "",
          "type": "uint64"
        },
        {
          "internalType": "uint64",
          "name": "",
          "type": "uint64"
        }
      ],
      "stateMutability": "view",
      "type": "function"
    },
    {
      "inputs": [
        {
          "internalType": "address",
          "name": "user",
          "type": "address"
        }
      ],
      "name": "getOrders",
      "outputs": [
        {
          "internalType": "uint256[]",
          "name": "",
          "type": "uint256[]"
        }
      ],
      "stateMutability": "view",
      "type": "function"
    },
    {
      "inputs": [
        {
          "internalType": "string",
          "name": "_str",
          "type": "string"
        }
      ],
      "name": "setStr",
      "outputs": [],
      "stateMutability": "nonpayable",
      "type": "function"
    },
    {
      "inputs": [
        {
          "internalType": "address",
          "name": "",
          "type": "address"
        }
      ],
      "name": "users",
      "outputs": [
        {
          "internalType": "string",
          "name": "name",
          "type": "string"
        },
        {
          "internalType": "uint8",
          "name": "age",
          "type": "uint8"
        },
        {
          "internalType": "uint8",
          "name": "weight",
          "type": "uint8"
        }
      ],
      "stateMutability": "view",
      "type": "function"
    }
  ],
  "bytecode": "0x600b6000556001805471010000000000000000000000000000000d0c6001600160901b0319909116179055600280546001600160801b031916600e179055610120604052610191608090815261019260a05261019360c05261019560e05261019661010052620000749060039060056200022b565b5060408051808201909152600a8152696e616d652076616c756560b01b6020820152600790620000a590826200043d565b50600880546001600160801b031916600e179055348015620000c657600080fd5b50600580546001600160a01b031916339081178255604080518082019091529182526430b236b4b760d91b60208301526200010591601160786200010b565b62000509565b60008260ff1611801562000122575060648260ff16105b6200015d5760405162461bcd60e51b81526020600482015260076024820152666261642061676560c81b604482015260640160405180910390fd5b60606200016962000281565b6040805160a08101825286815260ff8087166020808401919091529086168284015260608201859052608082018490526001600160a01b038916600090815260069091529190912081518190620001c190826200043d565b50602082810151600183018054604086015160ff9081166101000261ffff19909216931692909217919091179055606083015180516200020892600285019201906200029f565b506080820151620002209060038084019190620002dd565b505050505050505050565b8280548282559060005260206000209081019282156200026f579160200282015b828111156200026f578251829061ffff169055916020019190600101906200024c565b506200027d9291506200037f565b5090565b60405180606001604052806003906020820280368337509192915050565b8280548282559060005260206000209081019282156200026f579160200282015b828111156200026f578251825591602001919060010190620002c0565b6001830191839082156200026f5791602002820160005b838211156200034057835183826101000a8154816001600160401b0302191690836001600160401b031602179055509260200192600801602081600701049283019260010302620002f4565b8015620003755782816101000a8154906001600160401b03021916905560080160208160070104928301926001030262000340565b50506200027d9291505b5b808211156200027d576000815560010162000380565b634e487b7160e01b600052604160045260246000fd5b600181811c90821680620003c157607f821691505b602082108103620003e257634e487b7160e01b600052602260045260246000fd5b50919050565b601f82111562000438576000816000526020600020601f850160051c81016020861015620004135750805b601f850160051c820191505b8181101562000434578281556001016200041f565b5050505b505050565b81516001600160401b0381111562000459576200045962000396565b62000471816200046a8454620003ac565b84620003e8565b602080601f831160018114620004a95760008415620004905750858301515b600019600386901b1c1916600185901b17855562000434565b600085815260208120601f198616915b82811015620004da57888601518255948401946001909101908401620004b9565b5085821015620004f95787850151600019600388901b60f8161c191681555b5050505050600190811b01905550565b610ab980620005196000396000f3fe608060405234801561001057600080fd5b50600436106100935760003560e01c80635683693f116100665780635683693f1461010a5780638126ccc4146101825780639a9bdca714610195578063a87430ba146101a8578063db6a3652146101ca57600080fd5b8063093376fe14610098578063191347df146100c15780633059100e146100d657806338d94193146100e9575b600080fd5b6100ab6100a6366004610656565b6101dd565b6040516100b89190610678565b60405180910390f35b6100d46100cf36600461075f565b61024f565b005b6100d46100e43660046107b4565b61025f565b6100fc6100f7366004610808565b6102e0565b6040519081526020016100b8565b610157610118366004610656565b6001600160a01b031660009081526006602052604090206003015467ffffffffffffffff80821692600160401b8304821692600160801b900490911690565b6040805167ffffffffffffffff948516815292841660208401529216918101919091526060016100b8565b6100d4610190366004610832565b610301565b6100fc6101a3366004610808565b610417565b6101bb6101b6366004610656565b610427565b6040516100b893929190610896565b6100d46101d83660046108f8565b6104d7565b6001600160a01b038116600090815260066020908152604091829020600281018054845181850281018501909552808552606094929383018282801561024257602002820191906000526020600020905b81548152602001906001019080831161022e575b5050505050915050919050565b600761025b82826109ad565b5050565b6001600160a01b0384166000908152600660205260409020600181015460ff1661028b5761028b610a6d565b600301805467ffffffffffffffff938416600160401b026fffffffffffffffffffffffffffffffff19909116948416949094179390931767ffffffffffffffff60801b1916600160801b919092160217905550565b600381815481106102f057600080fd5b600091825260209091200154905081565b60008260ff16118015610317575060648260ff16105b6103515760405162461bcd60e51b81526020600482015260076024820152666261642061676560c81b604482015260640160405180910390fd5b606061035b61051d565b6040805160a08101825286815260ff8087166020808401919091529086168284015260608201859052608082018490526001600160a01b0389166000908152600690915291909120815181906103b190826109ad565b50602082810151600183018054604086015160ff9081166101000261ffff19909216931692909217919091179055606083015180516103f6926002850192019061053b565b50608082015161040c9060038084019190610586565b505050505050505050565b600481815481106102f057600080fd5b60066020526000908152604090208054819061044290610922565b80601f016020809104026020016040519081016040528092919081815260200182805461046e90610922565b80156104bb5780601f10610490576101008083540402835291602001916104bb565b820191906000526020600020905b81548152906001019060200180831161049e57829003601f168201915b5050506001909301549192505060ff8082169161010090041683565b6001600160a01b0382166000908152600660205260409020600181015460ff1661050357610503610a6d565b600201805460018101825560009182526020909120015550565b60405180606001604052806003906020820280368337509192915050565b828054828255906000526020600020908101928215610576579160200282015b8281111561057657825182559160200191906001019061055b565b50610582929150610625565b5090565b6001830191839082156105765791602002820160005b838211156105e857835183826101000a81548167ffffffffffffffff021916908367ffffffffffffffff160217905550926020019260080160208160070104928301926001030261059c565b801561061c5782816101000a81549067ffffffffffffffff02191690556008016020816007010492830192600103026105e8565b50506105829291505b5b808211156105825760008155600101610626565b80356001600160a01b038116811461065157600080fd5b919050565b60006020828403121561066857600080fd5b6106718261063a565b9392505050565b6020808252825182820181905260009190848201906040850190845b818110156106b057835183529284019291840191600101610694565b50909695505050505050565b634e487b7160e01b600052604160045260246000fd5b600082601f8301126106e357600080fd5b813567ffffffffffffffff808211156106fe576106fe6106bc565b604051601f8301601f19908116603f01168101908282118183101715610726576107266106bc565b8160405283815286602085880101111561073f57600080fd5b836020870160208301376000602085830101528094505050505092915050565b60006020828403121561077157600080fd5b813567ffffffffffffffff81111561078857600080fd5b610794848285016106d2565b949350505050565b803567ffffffffffffffff8116811461065157600080fd5b600080600080608085870312156107ca57600080fd5b6107d38561063a565b93506107e16020860161079c565b92506107ef6040860161079c565b91506107fd6060860161079c565b905092959194509250565b60006020828403121561081a57600080fd5b5035919050565b803560ff8116811461065157600080fd5b6000806000806080858703121561084857600080fd5b6108518561063a565b9350602085013567ffffffffffffffff81111561086d57600080fd5b610879878288016106d2565b93505061088860408601610821565b91506107fd60608601610821565b606081526000845180606084015260005b818110156108c457602081880181015160808684010152016108a7565b506000608082850101526080601f19601f83011684010191505060ff8416602083015260ff83166040830152949350505050565b6000806040838503121561090b57600080fd5b6109148361063a565b946020939093013593505050565b600181811c9082168061093657607f821691505b60208210810361095657634e487b7160e01b600052602260045260246000fd5b50919050565b601f8211156109a8576000816000526020600020601f850160051c810160208610156109855750805b601f850160051c820191505b818110156109a457828155600101610991565b5050505b505050565b815167ffffffffffffffff8111156109c7576109c76106bc565b6109db816109d58454610922565b8461095c565b602080601f831160018114610a1057600084156109f85750858301515b600019600386901b1c1916600185901b1785556109a4565b600085815260208120601f198616915b82811015610a3f57888601518255948401946001909101908401610a20565b5085821015610a5d5787850151600019600388901b60f8161c191681555b5050505050600190811b01905550565b634e487b7160e01b600052600160045260246000fdfea2646970667358221220431d742650bc82d066d8b9ea6d708016f4bd0a3349d11bc0d7b71b1ee45a494564736f6c63430008180033",
  "linkReferences": {},
  "deployedLinkReferences": {}
}